:100000000C946C000C947E000C947E000C947E008A
:100010000C947E000C947E000C947E000C947E0068
:100020000C947E000C947E000C947E000C947E0058
:100030000C947E000C947E000C947E000C947E0048
:100040000C947E000C947E000C9480000C94AE0006
:100050000C947E000C947E000C947E000C947E0028
:100060000C947E000C947E004552524F523A20650B
:100070006C206275666665722065737461206C6CB5
:10008000656E6F200A004552524F523A206E6F2023
:100090007075646F206C656572206461746F206197
:1000A0006E7465732064652072656369626972208D
:1000B000656C207369677569656E74650A004552E1
:1000C000524F523A20726563696269656E646F20AF
:1000D0007472616D61200A0011241FBECFEFD8E059
:1000E000DEBFCDBF21E0A0E0B1E001C01D92A5348C
:1000F000B207E1F70E943F010C9463010C940000E9
:100100001F920F920FB60F9211242F938F939F93EC
:10011000EF93FF938091C0009091C600E09102019F
:10012000EF5FEF71209101012E17B1F08C71E09318
:100130000201F0E0EB5FFE4F908390910001892B6C
:1001400080930001FF91EF919F918F912F910F90DC
:100150000FBE0F901F90189582E0EFCF1F920F9265
:100160000FB60F9211248F939F93EF93FF9390916B
:100170000401809103019817A9F0E0910301EF5F5A
:10018000EF71E0930301F0E0EB5DFE4F808180931F
:10019000C600FF91EF919F918F910F900FBE0F902E
:1001A0001F9018958091C1008F7D8093C100F1CF81
:1001B00010920401109203011092020110920101A9
:1001C00097FF03C022E02093C00090789093C50071
:1001D0008093C40088E98093C10086E08093C200C8
:1001E000089590910201809101019817B1F09091CA
:1001F00001019F5F9F71E92FF0E0EB5FFE4F3081BF
:10020000209100019093010110920001822F90E053
:10021000982F8827830F911D089580E091E008951D
:10022000909104019F5F9F71209103012917E1F3D1
:10023000E92FF0E0EB5DFE4F808390930401809105
:10024000C10080628093C1000895CF93DF93EC01D9
:100250008991882319F00E941001FACFDF91CF9184
:100260000895CF93DF93EC01FE01849121968823BA
:1002700019F00E941001F8CFDF91CF91089587E621
:1002800090E00E94D80078940E94F10090FF07C08F
:100290008FE99FE00197F1F700C00000F5CF94FFD0
:1002A00005C08EEB90E00E943101EECF93FF03C0BA
:1002B00086E890E0F8CF91FF03C088E690E0F3CFA6
:0A02C0000E941001E1CFF894FFCF77
:00000001FF
