:100000000C9434000C9451000C9451000C94510049
:100010000C9451000C9451000C9451000C9451001C
:100020000C9451000C9451000C9451000C9451000C
:100030000C9451000C9451000C9451000C945100FC
:100040000C9451000C9451000C9444010C947201D6
:100050000C9451000C9451000C9451000C945100DC
:100060000C9451000C94510011241FBECFEFD8E026
:10007000DEBFCDBF11E0A0E0B1E0E4E3F4E002C0F8
:1000800005900D92A430B107D9F721E0A4E0B1E0CA
:1000900001C01D92A934B207E1F70E9403020C943B
:1000A00018020C940000249A2C980895823081F450
:1000B000EFE9FCE83197F1F700C000002C9882309E
:1000C00031F08FE99CE80197F1F700C00000089536
:1000D0002C9A813069F7FFEF20EE30E0F15020409C
:1000E0003040E1F7E9CF813041F42C9A8FE99CE868
:1000F0000197F1F700C0000008952C98F7CF2098E1
:100100000895FC0190E023B1822F817020FF17C079
:10011000AFEDBEE21197F1F700C0000093B1292FB7
:10012000217090FD8F5FAFEDBEE21197F1F700C037
:1001300000002111F3CF843040F081E004C09F5FC4
:10014000943029F482E08083089510820895AFED01
:10015000BEE21197F1F700C00000D5CFFC0190E09E
:1001600020E0923060F5223078F583B1482F41705D
:1001700080FF1FC09F5FAFEDBEE21197F1F700C097
:10018000000083B1382F317080FD15C02F5FAFEDB7
:10019000BEE21197F1F700C000004313E2CF1899B7
:1001A0000CC02F5FAFEDBEE21197F1F700C0000069
:1001B000D8CF2F5FE0CF9F5FEACF9F5FF3CF2917A4
:1001C00018F481E08083089510820895EF92FF92E1
:1001D0000F931F93CF93DF93EC01FC01019000205C
:1001E000E9F78F01081B190B7C01F70181917F0151
:1001F0000E94D401C7018C1B9D0B80179107ACF3A3
:1002000081E0DF91CF911F910F91FF90EF900895C2
:100210000F931F93CF93DF932AE0FC012083EC011F
:10022000219710E000E08881811103C001151105BC
:1002300071F40E94B5019C0122273A71232B69F4C5
:1002400090FDF1CF89830F5F1F4F2196ECCF81E0A6
:10025000DF91CF911F910F91089580E0F9CF0E9417
:10026000D40181E00895CF93DF93EC010E94B501A2
:100270009C0122273B71232B29F4888381E0DF91A5
:10028000CF91089580E0FBCF1F920F920FB60F928F
:1002900011242F938F939F93EF93FF938091C0002E
:1002A0009091C600E0910601EF5FEF71209105018A
:1002B0002E17B1F08C71E0930601F0E0E75FFE4F7E
:1002C000908390910401892B80930401FF91EF9119
:1002D0009F918F912F910F900FBE0F901F901895A7
:1002E00082E0EFCF1F920F920FB60F9211248F93DF
:1002F0009F93EF93FF9390910801809107019817C6
:10030000A9F0E0910701EF5FEF71E0930701F0E0E2
:10031000E75DFE4F80818093C600FF91EF919F9132
:100320008F910F900FBE0F901F9018958091C10074
:100330008F7D8093C100F1CF1092080110920701C8
:10034000109206011092050197FF03C022E020934E
:10035000C00090789093C5008093C40088E9809392
:10036000C10086E08093C2000895909106018091BB
:1003700005019817B1F0909105019F5F9F71E92FDA
:10038000F0E0E75FFE4F308120910401909305017A
:1003900010920401822F90E0982F8827830F911DDF
:1003A000089580E091E00895909108019F5F9F710A
:1003B000209107012917E1F3E92FF0E0E75DFE4FF7
:1003C0008083909308018091C10080628093C10076
:1003D0000895CF93DF93EC018991882319F00E944F
:1003E000D401FACFDF91CF910895CF93DF93EC0141
:1003F000FE0184912196882319F00E94D401F8CF40
:10040000DF91CF91089587E690E00E949C01789457
:100410001A9B0BC080E091E00E94E6008FE891E01B
:100420000197F1F700C00000F3CF82E091E0F4CF34
:04043000F894FFCF6E
:040434003100300063
:00000001FF
