:100000000C9434000C9446000C9446000C9446006A
:100010000C9446000C9446000C9446000C94460048
:100020000C9446000C9446000C9446000C94460038
:100030000C9446000C9446000C9446000C94460028
:100040000C9446000C9446000C9439010C94670102
:100050000C9446000C9446000C9446000C94460008
:100060000C9446000C94460011241FBECFEFD8E03C
:10007000DEBFCDBF21E0A0E0B1E001C01D92A534FC
:10008000B207E1F70E9495030C9420040C94000041
:10009000249A2C980895823081F4EFE9FCE8319796
:1000A000F1F700C000002C98823031F08FE99CE815
:1000B0000197F1F700C0000008952C9A813069F78C
:1000C000FFEF20EE30E0F15020403040E1F7E9CF83
:1000D000813041F42C9A8FE99CE80197F1F700C038
:1000E000000008952C98F7CF20980895FC0190E027
:1000F00023B1822F817020FF17C0AFEDBEE21197B0
:10010000F1F700C0000093B1292F217090FD8F5F9F
:10011000AFEDBEE21197F1F700C000002111F3CF5F
:10012000843040F081E004C09F5F943029F482E085
:100130008083089510820895AFEDBEE21197F1F724
:1001400000C00000D5CFFC0190E020E0923060F5C7
:10015000223078F583B1482F417080FF1FC09F5F28
:10016000AFEDBEE21197F1F700C0000083B1382F68
:10017000317080FD15C02F5FAFEDBEE21197F1F732
:1001800000C000004313E2CF18990CC02F5FAFED01
:10019000BEE21197F1F700C00000D8CF2F5FE0CF8B
:1001A0009F5FEACF9F5FF3CF291718F481E0808328
:1001B000089510820895EF92FF920F931F93CF93AB
:1001C000DF93EC01FC0101900020E9F78F01081B8F
:1001D000190B7C01F70181917F010E94C901C701C0
:1001E0008C1B9D0B80179107ACF381E0DF91CF91C1
:1001F0001F910F91FF90EF9008950F931F93CF934E
:10020000DF932AE0FC012083EC01219710E000E05D
:100210008881811103C00115110571F40E94AA01A2
:100220009C0122273A71232B69F490FDF1CF898339
:100230000F5F1F4F2196ECCF81E0DF91CF911F918F
:100240000F91089580E0F9CF0E94C90181E00895DF
:10025000CF93DF93EC010E94AA019C0122273B71FE
:10026000232B29F4888381E0DF91CF91089580E0EA
:10027000FBCF1F920F920FB60F9211242F938F93E3
:100280009F93EF93FF938091C0009091C600E091FF
:100290000201EF5FEF71209101012E17B1F08C7117
:1002A000E0930201F0E0EB5FFE4F9083909100013C
:1002B000892B80930001FF91EF919F918F912F9156
:1002C0000F900FBE0F901F90189582E0EFCF1F92F6
:1002D0000F920FB60F9211248F939F93EF93FF937A
:1002E00090910401809103019817A9F0E091030116
:1002F000EF5FEF71E0930301F0E0EB5DFE4F808173
:100300008093C600FF91EF919F918F910F900FBE48
:100310000F901F9018958091C1008F7D8093C10030
:10032000F1CF109204011092030110920201109279
:10033000010197FF03C022E02093C00090789093C2
:10034000C5008093C40088E98093C10086E0809353
:10035000C200089590910201809101019817B1F0B7
:10036000909101019F5F9F71E92FF0E0EB5FFE4FDD
:100370003081209100019093010110920001822FA1
:1003800090E0982F8827830F911D089580E091E0D9
:100390000895909104019F5F9F7120910301291797
:1003A000E1F3E92FF0E0EB5DFE4F808390930401D1
:1003B0008091C10080628093C1000895CF93DF9344
:1003C000EC018991882319F00E94C901FACFDF91CD
:1003D000CF910895CF93DF93EC01FE018491219694
:1003E000882319F00E94C901F8CFDF91CF910895B9
:1003F000CF93DF93EB01DA01E0EEE80FEB3308F087
:1004000050C00E2E000CFF0BE85FFD4F0C94120441
:100410008202510251025102510251025102510213
:1004200051025102510251028A02510285025102C7
:100430005102510251025102510251025102510224
:1004400051025102510288025102510251025102DD
:1004500051024302460249024B024E025402560226
:1004600058025B025E026002620265026702690274
:100470006B026D026F0271027402760278027A02D8
:100480007C027E02800281E0888316C088E0888337
:1004900010C08AE0FCCF84E0888324C0188281E009
:1004A0008C93DF91CF91089582E0F1CF86E0F4CF75
:1004B000188284E0F5CF188282E0F2CF87E0E7CFA0
:1004C00085E0EACF84E08883EBCF83E0DDCF82E074
:1004D000FACF87E0E1CF86E0DACF8DE0D8CF82E0B7
:1004E000DBCF188283E0DCCF81E0EDCF81E0D4CF99
:1004F00081E0CDCF83E0E7CF89E0C9CF8BE0C7CFE4
:100500008CE0C5CF188285E0CBCF81E08883FBCF1C
:1005100082E0FCCF83E0FACF8F929F92AF92BF929E
:10052000CF92DF92EF92FF920F931F93CF93DF93BF
:1005300000D0CDB7DEB75C014B017A0189016C01B7
:10054000C6018A199B0988159905CCF4F601819199
:100550006F01082E000C990B0E941804AE014F5F2A
:100560005F4FBE016E5F7F4F0E94F8018A81F701E5
:1005700081937F018981F80181938F01E1CF0F90F1
:100580000F90DF91CF911F910F91FF90EF90DF902F
:10059000CF90BF90AF909F908F900895E82FDA0191
:1005A000633039F128F4613051F0623089F00895F8
:1005B000643009F43FC0653009F46CC008958823A5
:1005C00021F084E5E13011F0089585E48C93FCCFAF
:1005D000813069F024F489E4EE23C1F30895823078
:1005E00021F08DE4E33091F3EFCF8EE4EFCF81E49F
:1005F000EDCF883048F70E2E000CFF0BEE5FFC4F5E
:100600000C9412040E030C0310030A0318031403C2
:100610001603120387E5DACF85E5D8CF83E5D6CF79
:1006200082E5D4CF8FE4D2CF8BE4D0CF87E4CECF96
:1006300084E4CCCF8E3008F0C7CF0E2E000CFF0B19
:10064000EC5DFC4F0C941204420338034403E402B3
:100650003E03E4023C0340034803360346033403ED
:1006600032033A038AE5B2CF89E5B0CF88E5AECF51
:1006700086E5ACCF81E5AACF80E5A8CF8CE4A6CFF4
:100680008AE4A4CF88E4A2CF86E4A0CF83E49ECFFF
:1006900082E49CCF813079F02CF480E2EE2309F4DF
:1006A00095CF0895823029F08CE2E33009F48ECFA3
:1006B0008BCF8BE38BCF8EE289CF8F929F92AF92BD
:1006C000BF92CF92DF92EF92FF920F931F93CF933F
:1006D000DF931F92CDB7DEB75B014A016C01890140
:1006E0007B01C7018A199B098815990584F4F701D4
:1006F00061917F01AE014F5F5F4FF60181916F0104
:100700000E94CE028981F80181938F01EACF0F9078
:10071000DF91CF911F910F91FF90EF90DF90CF90DD
:10072000BF90AF909F908F900895CF93DF93CDB7F8
:10073000DEB7C153D1400FB6F894DEBF0FBECDBFB8
:1007400087E690E00E94910178940E947400CE01A7
:1007500001967C01CE018F5C9E4F0E947600CF5C9B
:10076000DE4F8881C153D1408230A1F38E010A59F6
:100770001F4F5701680177247394812C912CCF5C13
:10078000DE4F8881C153D140813009F48728770C2E
:100790009394CE018F5C9E4F0E947600CF5CDE4F1B
:1007A0008881C153D140823051F7F60181926F01A7
:1007B000F50191925F013601601A710ACE018F5CDA
:1007C0009E4F0E947600CF5CDE4F8881C153D1409E
:1007D000823089F66E01FBECCF0ED11C5701460129
:1007E000C5018E199F0986159705A0F4F501619141
:1007F0005F01AE01405D5E4FF80181918F010E9463
:10080000CE02C05DDE4F8881C053D140F601819396
:100810006F01E6CFF401E60DF71D1082C4010E94BE
:10082000DB0098CFEE0FFF1F0590F491E02D0994A7
:100830009111089581568A5108F48052855808957F
:04084000F894FFCF5A
:00000001FF
